:020000040800F2
:1000000000300020D9230008DF030008ED030008BA
:10001000F3030008F9030008FF03000800000000D4
:1000200000000000000000000000000005040008BF
:100030001304000800000000210400082F04000839
:10004000292400082924000829240008292400085C
:10005000292400082924000829240008292400084C
:10006000292400082924000829240008292400083C
:10007000292400082924000829240008292400082C
:10008000292400082924000829240008292400081C
:10009000292400082924000829240008292400080C
:1000A00029240008292400082924000829240008FC
:1000B0002924000829240008000000002924000841
:1000C0002924000800000000000000002924000886
:1000D0000000000029240008292400082924000821
:1000E0002924000829240008000000000000000066
:1000F0000000000000000000000000000000000000
:1001000000000000000000000000000000000000EF
:100110000000000000000000292400082924000835
:1001200000000000000000000000000000000000CF
:1001300000000000000000000000000000000000BF
:100140002924000829240008000000000000000005
:10015000000000000000000000000000000000009F
:10016000000000000000000000000000000000008F
:10017000000000000000000000000000000000007F
:08018000000000002924000822
:1001880010B5054C237833B9044B13B10448AFF3C9
:1001980000800123237010BD7000002000000000C3
:1001A800C02D000808B5034B1BB103490348AFF342
:1001B800008008BD0000000074000020C02D000869
:1001C80080B483B000AF78604FF06043D3F8803ECE
:1001D80003F00103002B13D04FF06043D3F8003E27
:1001E80003F00103002B0BD000E000BF4FF0604389
:1001F8001B68002BF9D04FF060437A68D2B21A70AE
:100208007B6818460C37BD465DF8047B704780B59F
:1002180086B000AFF860B9607A6000237B6109E0BE
:10022800BB685A1CBA601B781846FFF7C9FF7B6980
:1002380001337B617A697B689A42F1DB7B681846F7
:100248001837BD4680BD000080B582B000AF00F011
:100258008BFC00F013F800F087F800F055F8002345
:100268007B607B6801337B604FF47A7000F0E2FCBE
:10027800014802F05FF9F4E7D82D000880B590B086
:1002880000AF07F1180328220021184602F0EEF803
:100298003B1D00221A605A609A60DA601A610123D5
:1002A800BB614FF48033FB6100233B620123BB62D7
:1002B80002237B634FF48033BB634FF4E013FB638B
:1002C80007F11803184600F0D7FC0346002B01D0AD
:1002D80000F07AF80F237B600223BB600023FB60E9
:1002E8004FF480633B6100237B613B1D022118466C
:1002F80001F0CAFB0346002B01D000F065F800BFEF
:100308004037BD4680BD000080B500AF144B154A8C
:100318001A60134B4FF416425A60114B00229A6030
:100328000F4B0022DA600E4B00221A610C4B0C2294
:100338005A610B4B00229A61094B0022DA61084B83
:1003480000221A62064B00225A62054800F0DAF8C9
:100358000346002B01D000F037F800BF80BD00BF76
:10036800980000200044004080B485B000AF154BD1
:100378005B69144A43F480035361124B5B6903F4CD
:100388008003FB60FB680F4B5B690E4A43F4003344
:1003980053610C4B5B6903F40033BB60BB68094BCA
:1003A8005B69084A43F480235361064B5B6903F495
:1003B80080237B607B6800BF1437BD465DF8047BF3
:1003C800704700BF0010024080B400AF00BFBD46B8
:1003D8005DF8047B704780B400AF00BFBD465DF890
:1003E800047B704780B400AFFEE780B400AFFEE73F
:1003F80080B400AFFEE780B400AFFEE780B400AF82
:1004080000BFBD465DF8047B704780B400AF00BFF5
:10041800BD465DF8047B704780B400AF00BFBD46A1
:100428005DF8047B704780B500AF00F0E3FB00BFC8
:1004380080BD000080B483B000AF0F4B9B690E4AAB
:1004480043F0010393610C4B9B6903F001037B604C
:100458007B68094BDB69084A43F08053D361064B3C
:10046800DB6903F080533B603B6800BF0C37BD4637
:100478005DF8047B704700BF0010024080B58AB069
:1004880000AF786007F1140300221A605A609A607E
:10049800DA601A617B681B68184A934229D1184BA5
:1004A800DB69174A43F40033D361154BDB6903F466
:1004B80000333B613B69124B5B69114A43F40033DB
:1004C80053610F4B5B6903F40033FB60FB6848F230
:1004D80004037B610223BB610023FB6103233B62AE
:1004E80007237B6207F1140319464FF0904001F08F
:1004F80001FD00BF2837BD4680BD00BF0044004055
:100508000010024080B582B000AF78607B68002B95
:1005180001D1012340E07B685B6F002B06D17B682B
:10052800002283F870207868FFF7A8FF7B682422F0
:100538005A677B681B681A687B681B6822F001028F
:100548001A60786800F02CF80346012B01D10123CA
:1005580022E07B685B6A002B02D0786800F0A2F981
:100568007B681B685A687B681B6822F490425A6053
:100578007B681B689A687B681B6822F02A029A606D
:100588007B681B681A687B681B6842F001021A6066
:10059800786800F029FA034618460837BD4680BD3A
:1005A80080B588B000AF78600023BB610023FB757D
:1005B8007B689A687B681B691A437B685B691A4386
:1005C8007B68DB6913433B617B681B681A68A24B35
:1005D80013407A68126839690B4313607B681B689B
:1005E8005B6823F440517B68DA687B681B680A43C0
:1005F8005A607B689B693B617B681B6A3A69134355
:100608003B617B681B689B6823F430617B681B68CF
:100618003A690A439A607B681B68904A934221D1E1
:100628008F4B1B6B03F00303032B17D801A252F85F
:1006380023F000BF4D060008590600085F060008B1
:10064800530600080023FB771EE00223FB771BE01C
:100658000423FB7718E00823FB7715E01023FB77CA
:1006680000BF11E07B681B687E4A934202D10023D9
:10067800FB7709E07B681B687B4A934202D1002321
:10068800FB7701E01023FB777B68DB69B3F5004F4C
:1006980040F08280FB7F082B5ED801A252F823F03D
:1006A800CD060008ED0600080D07000861070008E0
:1006B80029070008610700086107000861070008AA
:1006C8004907000801F0D2FBF860FB685A007B6814
:1006D8005B685B081A447B685B68B2FBF3F39BB208
:1006E800BB613CE001F0E4FBF860FB685A007B6802
:1006F8005B685B081A447B685B68B2FBF3F39BB2E8
:10070800BB612CE07B685B685B0803F5740303F549
:1007180010537A685268B3FBF2F39BB2BB611EE0D8
:1007280001F02EFBF860FB685A007B685B685B0889
:100738001A447B685B68B2FBF3F39BB2BB610EE0C3
:100748007B685B685B0803F580327B685B68B2FB9B
:10075800F3F39BB2BB6102E00123FB7500BFBB69E9
:100768000F2B16D9BB69B3F5803F12D2BB699BB278
:1007780023F00F037B81BB695B089BB203F007037F
:100788009AB27B8913437B817B681B687A89DA601C
:100798007DE00123FB757AE0FB7F082B66D801A278
:1007A80052F823F0D1070008EF0700080D080008E9
:1007B8007508000829080008750800087508000869
:1007C800750800084708000801F050FBF8607B68CE
:1007D8005B685A08FB681A447B685B68B2FBF3F3F2
:1007E8009BB2BB6145E001F063FBF8607B685B6826
:1007F8005A08FB681A447B685B68B2FBF3F39BB248
:10080800BB6136E07B685B685B0803F5F40303F5BE
:1008180090537A685268B3FBF2F39BB2BB6128E04D
:1008280001F0AEFAF8607B685B685A08FB681A4406
:100838007B685B68B2FBF3F39BB2BB6119E07B6832
:100848005B685B0803F500427B685B68B2FBF3F307
:100858009BB2BB610DE000BFF369FFEF00380140B8
:100868000010024000440040004800400123FB758E
:1008780000BFBB690F2B08D9BB69B3F5803F04D211
:100888007B681B68BA69DA6001E00123FB757B6845
:1008980000221A667B6800225A66FB7D18462037BC
:1008A800BD4680BD80B483B000AF78607B685B6A6A
:1008B80003F00103002B0AD07B681B685B6823F4F4
:1008C80000317B689A6A7B681B680A435A607B68B8
:1008D8005B6A03F00203002B0AD07B681B685B6825
:1008E80023F480317B68DA6A7B681B680A435A60A4
:1008F8007B685B6A03F00403002B0AD07B681B68E3
:100908005B6823F480217B681A6B7B681B680A4349
:100918005A607B685B6A03F00803002B0AD07B6887
:100928001B685B6823F400417B685A6B7B681B6813
:100938000A435A607B685B6A03F01003002B0AD0F5
:100948007B681B689B6823F480517B689A6B7B6883
:100958001B680A439A607B685B6A03F02003002BDC
:100968000AD07B681B689B6823F400517B68DA6BAC
:100978007B681B680A439A607B685B6A03F04003E4
:10098800002B1AD07B681B685B6823F480117B6896
:100998001A6C7B681B680A435A607B681B6CB3F54A
:1009A800801F0AD17B681B685B6823F4C0017B68E1
:1009B8005A6C7B681B680A435A607B685B6A03F061
:1009C8008003002B0AD07B681B685B6823F4002136
:1009D8007B689A6C7B681B680A435A6000BF0C37B7
:1009E800BD465DF8047B704780B586B002AF78607D
:1009F8007B680022DA6700F011F9F8607B681B68F1
:100A08001B6803F00803082B0ED16FF07E43009398
:100A1800FB6800224FF40011786800F02AF80346BA
:100A2800002B01D0032320E07B681B681B6803F0C0
:100A38000403042B0ED16FF07E430093FB68002261
:100A48004FF48001786800F014F80346002B01D0B9
:100A580003230AE07B6820225A677B6820229A6772
:100A68007B68002283F87020002318461037BD46A3
:100A780080BD80B584B000AFF860B9603B601346B4
:100A8800FB715DE0BB69B3F1FF3F59D000F0C6F8D8
:100A980002463B68D31ABA699A4202D3BB69002B53
:100AA8001BD1FB681B681A68FB681B6822F4D072AC
:100AB8001A60FB681B689A68FB681B6822F00102D1
:100AC8009A60FB6820225A67FB6820229A67FB68B5
:100AD800002283F87020032342E0FB681B681B6830
:100AE80003F00403002B2BD0FB681B68DB6903F4BD
:100AF8000063B3F5006F23D1FB681B684FF40062F5
:100B08001A62FB681B681A68FB681B6822F4D072BB
:100B18001A60FB681B689A68FB681B6822F0010270
:100B28009A60FB6820225A67FB6820229A67FB6854
:100B38002022DA67FB68002283F8702003230FE085
:100B4800FB681B68DA69BB681340BA689A420CBF35
:100B580001230023DBB21A46FB799A4292D0002384
:100B680018461037BD4680BD80B500AF084B1B68DE
:100B7800074A43F010031360032001F0DFFB002055
:100B880000F008F8FFF756FC0023184680BD00BFA8
:100B98000020024080B582B000AF7860124B1A681E
:100BA800124B1B7819464FF47A73B3FBF1F3B2FB7F
:100BB800F3F3184601F0E9FB0346002B01D00123AB
:100BC8000EE07B680F2B0AD8002279684FF0FF30BF
:100BD80001F0BFFB064A7B681360002300E0012395
:100BE80018460837BD4680BD0800002004000020D4
:100BF8000000002080B400AF064B1B781A46064B55
:100C08001B681344044A136000BFBD465DF8047BAB
:100C1800704700BF040000201801002080B400AF16
:100C2800034B1B681846BD465DF8047B704700BF40
:100C38001801002080B584B000AF7860FFF7EEFFA0
:100C4800B8607B68FB60FB68B3F1FF3F05D0094BD8
:100C58001B781A46FB681344FB6000BFFFF7DEFFF2
:100C68000246BB68D31AFA689A42F7D800BF103711
:100C7800BD4680BD0400002080B5ADF5007D00AF05
:100C88003B1D18603B1D1B68002B02D1012300F09F
:100C9800F4BE3B1D1B681B6803F00103002B00F02A
:100CA8006A81B34B5B6803F00C03042B0CD0B04B88
:100CB8005B6803F00C03082B59D1AD4B5B6803F458
:100CC8008033B3F5803F52D14FF40033C7F8F03189
:100CD800D7F8F03193FAA3F3C7F8EC31D7F8EC3131
:100CE800B3FA83F3DBB25B09DBB243F00103DBB297
:100CF800012B02D19E4B1B6815E04FF40033C7F857
:100D0800E831D7F8E83193FAA3F3C7F8E4314FF4A0
:100D18000033C7F8E031D7F8E03193FAA3F3C7F806
:100D2800DC31934B5B6A4FF40032C7F8D821D7F80F
:100D3800D82192FAA2F2C7F8D421D7F8D421B2FA6E
:100D480082F2D2B242F02002D2B202F01F02012196
:100D580001FA02F21340002B00F00C813B1D1B68C6
:100D68005B68002B40F00681012300F086BE3B1D26
:100D78001B685B68B3F5803F06D17D4B1B687C4AD6
:100D880043F48033136030E03B1D1B685B68002B25
:100D98000CD1774B1B68764A23F480331360744B6D
:100DA8001B68734A23F4802313601EE03B1D1B68F5
:100DB8005B68B3F5A02F0CD16D4B1B686C4A43F4EC
:100DC800802313606A4B1B68694A43F480331360BD
:100DD8000BE0674B1B68664A23F480331360644B4F
:100DE8001B68634A23F480231360614BDB6A23F09A
:100DF8000F023B1D1B689B685D491343CB623B1D7B
:100E08001B685B68002B59D0FFF708FFC7F8F8018B
:100E18000AE0FFF703FF0246D7F8F831D31A642B2C
:100E280002D9032300F029BE4FF40033C7F8D031AC
:100E3800D7F8D03193FAA3F3C7F8CC31D7F8CC312F
:100E4800B3FA83F3DBB25B09DBB243F00103DBB235
:100E5800012B02D1464B1B6815E04FF40033C7F84D
:100E6800C831D7F8C83193FAA3F3C7F8C4314FF49F
:100E78000033C7F8C031D7F8C03193FAA3F3C7F8E5
:100E8800BC313B4B5B6A4FF40032C7F8B821D7F846
:100E9800B82192FAA2F2C7F8B421D7F8B421B2FA6D
:100EA80082F2D2B242F02002D2B202F01F02012135
:100EB80001FA02F21340002BABD05CE0FFF7AEFE64
:100EC800C7F8F8010AE0FFF7A9FE0246D7F8F8319B
:100ED800D31A642B02D9032300F0CFBD4FF400339B
:100EE800C7F8B031D7F8B03193FAA3F3C7F8AC31EB
:100EF800D7F8AC31B3FA83F3DBB25B09DBB243F06A
:100F08000103DBB2012B02D1194B1B6815E04FF42A
:100F18000033C7F8A831D7F8A83193FAA3F3C7F874
:100F2800A4314FF40033C7F8A031D7F8A03193FAB1
:100F3800A3F3C7F89C310E4B5B6A4FF40032C7F835
:100F48009821D7F8982192FAA2F2C7F89421D7F8F5
:100F58009421B2FA82F2D2B242F02002D2B202F066
:100F68001F02012101FA02F21340002BABD102E06B
:100F78000010024000BF3B1D1B681B6803F0020302
:100F8800002B00F06F81D04B5B6803F00C03002B43
:100F98000BD0CD4B5B6803F00C03082B6CD1CA4B0C
:100FA8005B6803F48033002B66D10223C7F89031C5
:100FB800D7F8903193FAA3F3C7F88C31D7F88C316E
:100FC800B3FA83F3DBB25B09DBB243F00103DBB2B4
:100FD800012B02D1BC4B1B6813E00223C7F88831F0
:100FE800D7F8883193FAA3F3C7F884310223C7F8F6
:100FF8008031D7F8803193FAA3F3C7F87C31B24B2C
:101008005B6A0222C7F87821D7F8782192FAA2F20F
:10101800C7F87421D7F87421B2FA82F2D2B242F03A
:101028002002D2B202F01F02012101FA02F213409B
:10103800002B07D03B1D1B681B69012B02D0012325
:1010480000F01BBDA04B1B6823F0F8023B1D1B687A
:101058005B69F821C7F87011D7F8701191FAA1F1FE
:10106800C7F86C11D7F86C11B1FA81F1C9B28B408D
:10107800954913430B60F5E03B1D1B681B69002B6A
:1010880000F085800123C7F86831D7F8683193FAF2
:10109800A3F3C7F86431D7F86431B3FA83F3DBB24A
:1010A80003F1845303F584139B001A46012313604C
:1010B800FFF7B4FDC7F8F8010AE0FFF7AFFD0246F5
:1010C800D7F8F831D31A022B02D9032300F0D5BC84
:1010D8000223C7F86031D7F8603193FAA3F3C7F851
:1010E8005C31D7F85C31B3FA83F3DBB25B09DBB26E
:1010F80043F00103DBB2012B02D1734B1B6813E0F1
:101108000223C7F85831D7F8583193FAA3F3C7F830
:1011180054310223C7F85031D7F8503193FAA3F36A
:10112800C7F84C31684B5B6A0222C7F84821D7F8E8
:10113800482192FAA2F2C7F84421D7F84421B2FA1A
:1011480082F2D2B242F02002D2B202F01F02012192
:1011580001FA02F21340002BAFD05B4B1B6823F05F
:10116800F8023B1D1B685B69F821C7F84011D7F8E6
:10117800401191FAA1F1C7F83C11D7F83C11B1FA26
:1011880081F1C9B28B40504913430B606AE00123D7
:10119800C7F83831D7F8383193FAA3F3C7F83431A0
:1011A800D7F83431B3FA83F3DBB203F1845303F590
:1011B80084139B001A4600231360FFF72FFDC7F81E
:1011C800F8010AE0FFF72AFD0246D7F8F831D31AEA
:1011D800022B02D9032300F050BC0223C7F8303198
:1011E800D7F8303193FAA3F3C7F82C31D7F82C315C
:1011F800B3FA83F3DBB25B09DBB243F00103DBB282
:10120800012B02D1304B1B6813E00223C7F82831A9
:10121800D7F8283193FAA3F3C7F824310223C7F883
:101228002031D7F8203193FAA3F3C7F81C31264BA5
:101238005B6A0222C7F81821D7F8182192FAA2F29D
:10124800C7F81421D7F81421B2FA82F2D2B242F0C8
:101258002002D2B202F01F02012101FA02F2134069
:10126800002BAFD13B1D1B681B6803F00803002B44
:1012780000F0DA803B1D1B689B69002B69D00123B5
:10128800C7F81031D7F8103193FAA3F3C7F80C3127
:10129800D7F80C31B3FA83F3DBB21A460B4B13447D
:1012A8009B001A4601231360FFF7B8FCC7F8F80142
:1012B8000EE0FFF7B3FC0246D7F8F831D31A022B39
:1012C80006D90323D9E300BF001002402081901003
:1012D8000223C7F80831D7F8083193FAA3F3C7F8FF
:1012E800043107F5807302221A6007F580731B68C2
:1012F80093FAA3F207F1FC031A6007F1F80302223C
:101308001A6007F1F8031B6893FAA3F207F1F403D4
:101318001A60A54B5A6A07F1F0030221196007F118
:10132800F0031B6893FAA3F107F1EC03196007F1C6
:10133800EC031B68B3FA83F3DBB243F06003DBB260
:1013480003F01F03012101FA03F31340002BB0D06F
:101358006AE007F1E80301221A6007F1E8031B6855
:1013680093FAA3F207F1E4031A6007F1E4031B6898
:10137800B3FA83F3DBB21A468C4B13449B001A462C
:1013880000231360FFF74AFCC7F8F80109E0FFF7EC
:1013980045FC0246D7F8F831D31A022B01D90323AA
:1013A8006BE307F1E00302221A6007F1E0031B6810
:1013B80093FAA3F207F1DC031A6007F1D8030222BB
:1013C8001A6007F1D8031B6893FAA3F207F1D40354
:1013D8001A6007F1D00302221A6007F1D0031B68D4
:1013E80093FAA3F207F1CC031A606F4B5A6A07F11C
:1013F800C8030221196007F1C8031B6893FAA3F117
:1014080007F1C403196007F1C4031B68B3FA83F337
:10141800DBB243F06003DBB203F01F03012101FAE2
:1014280003F31340002BB2D13B1D1B681B6803F06C
:101438000403002B00F05881002387F8FF315A4B32
:10144800DB6903F08053002B12D1574BDB69564AF6
:1014580043F08053D361544BDB6903F0805207F1AA
:1014680008031A6007F108031B68012387F8FF3196
:101478004F4B1B6803F48073002B1AD14C4B1B682D
:101488004B4A43F480731360FFF7C8FBC7F8F801B1
:1014980009E0FFF7C3FB0246D7F8F831D31A642BEB
:1014A80001D90323E9E2424B1B6803F48073002B44
:1014B800EFD03B1D1B68DB68012B06D13A4B1B6A3A
:1014C800394A43F0010313622FE03B1D1B68DB68B8
:1014D800002B0CD1344B1B6A334A23F001031362EF
:1014E800314B1B6A304A23F0040313621DE03B1D95
:1014F8001B68DB68052B0CD12B4B1B6A2A4A43F06F
:1015080004031362284B1B6A274A43F00103136242
:101518000BE0254B1B6A244A23F001031362224B7C
:101528001B6A214A23F0040313623B1D1B68DB6816
:10153800002B6BD0FFF772FBC7F8F8010BE0FFF741
:101548006DFB0246D7F8F831D31A41F2883293423C
:1015580001D9032391E207F1C00302221A6007F1BF
:10156800C0031B6893FAA3F207F1BC031A6007F1E2
:10157800B80302221A6007F1B8031B6893FAA3F2B2
:1015880007F1B4031A6007F1B4031B68B3FA83F3D5
:10159800DBB25B09DBB243F00203DBB2022B09D1F9
:1015A800014B1B6A14E000BF00100240208190101C
:1015B8000070004007F1B00302221A6007F1B0037F
:1015C8001B6893FAA3F207F1AC031A60BB4B5B6A82
:1015D80007F1A8020221116007F1A802126892FA25
:1015E800A2F107F1A402116007F1A4021268B2FA8D
:1015F80082F2D2B242F04002D2B202F01F020121BE
:1016080001FA02F21340002B99D063E0FFF706FBC2
:10161800C7F8F8010BE0FFF701FB0246D7F8F831ED
:10162800D31A41F28832934201D9032325E207F104
:10163800A00302221A6007F1A0031B6893FAA3F221
:1016480007F19C031A6007F1980302221A6007F158
:1016580098031B6893FAA3F207F194031A6007F141
:1016680094031B68B3FA83F3DBB25B09DBB243F084
:101678000203DBB2022B02D1904B1B6A0DE007F18B
:10168800900302221A6007F190031B6893FAA3F2F1
:1016980007F18C031A60894B5B6A07F18802022103
:1016A800116007F18802126892FAA2F107F1840228
:1016B800116007F184021268B2FA82F2D2B242F0E3
:1016C8004002D2B202F01F02012101FA02F21340D5
:1016D800002BA0D197F8FF31012B05D1774BDB699F
:1016E800764A23F08053D3613B1D1B68DB69002BCE
:1016F80000F0C281714B5B6803F00C03082B00F00B
:101708009C813B1D1B68DB69022B40F0148107F1AB
:1017180080034FF080721A6007F180031B6893FA08
:10172800A3F207F17C031A6007F17C031B68B3FA84
:1017380083F3DBB203F1845303F584139B001A4649
:1017480000231360FFF76AFAC7F8F80109E0FFF70A
:1017580065FA0246D7F8F831D31A022B01D90323C8
:101768008BE107F178034FF000721A6007F17803F4
:101778001B6893FAA3F207F174031A6007F1740364
:101788001B68B3FA83F3DBB25B09DBB243F00103F6
:10179800DBB2012B02D1494B1B681BE007F1700338
:1017A8004FF000721A6007F170031B6893FAA3F2F6
:1017B80007F16C031A6007F168034FF000721A60B2
:1017C80007F168031B6893FAA3F207F164031A6030
:1017D8003A4B5B6A07F160024FF00071116007F144
:1017E8006002126892FAA2F107F15C02116007F137
:1017F8005C021268B2FA82F2D2B242F02002D2B28D
:1018080002F01F02012101FA02F21340002B9ED1BF
:101818002A4B5B6823F474123B1D1B68596A3B1DF5
:101828001B681B6A0B43254913434B6007F1580398
:101838004FF080721A6007F158031B6893FAA3F2FD
:1018480007F154031A6007F154031B68B3FA83F3D2
:10185800DBB203F1845303F584139B001A4601237A
:101868001360FFF7DBF9C7F8F80109E0FFF7D6F9CD
:101878000246D7F8F831D31A022B01D90323FCE02A
:1018880007F150034FF000721A6007F150031B680C
:1018980093FAA3F207F14C031A6007F14C031B6893
:1018A800B3FA83F3DBB25B09DBB243F00103DBB2CB
:1018B800012B05D1014B1B681EE000BF0010024040
:1018C80007F148034FF000721A6007F148031B68DC
:1018D80093FAA3F207F144031A6007F140034FF0AB
:1018E80000721A6007F140031B6893FAA3F207F12C
:1018F8003C031A60634B5B6A07F138024FF00071D2
:10190800116007F13802126892FAA2F107F1340265
:10191800116007F134021268B2FA82F2D2B242F0D0
:101928002002D2B202F01F02012101FA02F2134092
:10193800002B9BD0A0E007F130034FF080721A60B3
:1019480007F130031B6893FAA3F207F12C031A601E
:1019580007F12C031B68B3FA83F3DBB203F184535A
:1019680003F584139B001A4600231360FFF756F90A
:10197800C7F8F80109E0FFF751F90246D7F8F8313E
:10198800D31A022B01D9032377E007F128034FF07C
:1019980000721A6007F128031B6893FAA3F207F193
:1019A80024031A6007F124031B68B3FA83F3DBB23C
:1019B8005B09DBB243F00103DBB2012B02D1314BEF
:1019C8001B681BE007F120034FF000721A6007F153
:1019D80020031B6893FAA3F207F11C031A6007F1AE
:1019E80018034FF000721A6007F118031B6893FA86
:1019F800A3F207F114031A60224B5B6A07F1100285
:101A08004FF00071116007F11002126892FAA2F10A
:101A180007F10C02116007F10C021268B2FA82F2A7
:101A2800D2B242F02002D2B202F01F02012101FA22
:101A380002F21340002B9ED11EE03B1D1B68DB69A0
:101A4800012B01D1012318E00E4B5B68C7F8F43174
:101A5800D7F8F43103F480323B1D1B681B6A9A42A5
:101A680008D1D7F8F43103F470123B1D1B685B6A88
:101A78009A4201D0012300E00023184607F50077B9
:101A8800BD4680BD0010024080B59EB000AF7860B2
:101A9800396000237B677B68002B01D1012362E159
:101AA800904B1B6803F007033A689A4210D98D4B94
:101AB8001B6823F007028B493B6813430B60894B73
:101AC8001B6803F007033A689A4201D001234AE1F0
:101AD8007B681B6803F00203002B08D0824B5B680D
:101AE80023F0F0027B689B687F4913434B607B6857
:101AF8001B6803F00103002B00F0DC807B685B6847
:101B0800012B3CD14FF400333B673B6F93FAA3F3AF
:101B1800FB66FB6EB3FA83F3DBB25B09DBB243F01F
:101B28000103DBB2012B02D16F4B1B680FE04FF4AE
:101B38000033BB66BB6E93FAA3F37B664FF40033A6
:101B48003B663B6E93FAA3F3FB65674B5B6A4FF406
:101B58000032BA65BA6D92FAA2F27A657A6DB2FA73
:101B680082F2D2B242F02002D2B202F01F02012168
:101B780001FA02F21340002B7BD10123F3E07B68CA
:101B88005B68022B3CD14FF000733B653B6D93FAC9
:101B9800A3F3FB64FB6CB3FA83F3DBB25B09DBB240
:101BA80043F00103DBB2012B02D14F4B1B680FE05E
:101BB8004FF00073BB64BB6C93FAA3F37B644FF0E4
:101BC80000733B643B6C93FAA3F3FB63464B5B6A7D
:101BD8004FF00072BA63BA6B92FAA2F27A637A6B28
:101BE800B2FA82F2D2B242F02002D2B202F01F025E
:101BF800012101FA02F21340002B3AD10123B2E08D
:101C080002233B633B6B93FAA3F3FB62FB6AB3FAD1
:101C180083F3DBB25B09DBB243F00103DBB2012BD8
:101C280002D1314B1B680DE00223BB62BB6A93FAF9
:101C3800A3F37B6202233B623B6A93FAA3F3FB6143
:101C4800294B5B6A0222BA61BA6992FAA2F27A61F6
:101C58007A69B2FA82F2D2B242F02002D2B202F02B
:101C68001F02012101FA02F21340002B01D10123C6
:101C780079E01D4B5B6823F003027B685B681A49B7
:101C880013434B60FEF7CAFF78670AE0FEF7C6FF0A
:101C980002467B6FD31A41F28832934201D903235B
:101CA80061E0114B5B6803F00C027B685B689B008A
:101CB8009A42EBD10B4B1B6803F007033A689A4230
:101CC80014D2084B1B6823F0070206493B681343EC
:101CD8000B60044B1B6803F007033A689A4205D06F
:101CE800012340E000200240001002407B681B688E
:101CF80003F00403002B08D01D4B5B6823F4E0625B
:101D08007B68DB681A4913434B607B681B6803F0E8
:101D18000803002B09D0164B5B6823F460527B68DC
:101D28001B69DB00124913434B6000F029F8014698
:101D38000F4B5B6803F0F003F0223A613A6992FABC
:101D4800A2F2FA60FA68B2FA82F2D2B2D340094A31
:101D5800D35C21FA03F3084A1360084B1B68184642
:101D6800FEF718FF002318467837BD4680BD00BF30
:101D780000100240002E000808000020000000208B
:101D880080B48BB000AF0023FB610023BB6100234C
:101D98007B6200237B6100233B62294B5B68FB610C
:101DA800FB6903F00C03042B02D0082B03D03CE0A2
:101DB800244B3B623CE0FB6903F470134FF4701250
:101DC800BA60BA6892FAA2F27A607A68B2FA82F2D3
:101DD800D2B2D3401C4AD35C7B61194BDB6A03F057
:101DE8000F030F223A613A6992FAA2F2FA60FA688E
:101DF800B2FA82F2D2B2D340144AD35CBB61FB6917
:101E080003F48033002B08D00E4ABB69B2FBF3F20F
:101E18007B6902FB03F37B6204E07B690C4A02FBEB
:101E280003F37B627B6A3B6202E0064B3B6200BFC6
:101E38003B6A18462C37BD465DF8047B704700BFE7
:101E48000010024000127A00E02D0008F02D000872
:101E580000093D0080B400AF034B1B681846BD461F
:101E68005DF8047B704700BF0800002080B582B091
:101E780000AFFFF7EFFF01460B4B5B6803F4E0632D
:101E88004FF4E0627A607A6892FAA2F23A603A68AD
:101E9800B2FA82F2D2B2D340044AD35C21FA03F3F5
:101EA80018460837BD4680BD00100240102E0008B5
:101EB80080B582B000AFFFF7CDFF01460B4B5B68E2
:101EC80003F460534FF460527A607A6892FAA2F28F
:101ED8003A603A68B2FA82F2D2B2D340044AD35C8A
:101EE80021FA03F318460837BD4680BD00100240AA
:101EF800102E000880B487B000AF786039600023E6
:101F08007B614EE13B681A6801217B6901FA03F3A2
:101F18001340FB60FB68002B00F040813B685B6866
:101F2800022B03D03B685B68122B23D17B69DA084C
:101F38007B68083253F822303B617B6903F0070362
:101F48009B000F2202FA03F3DB433A6913403B611B
:101F58003B681A697B6903F007039B0002FA03F3E5
:101F68003A6913433B617B69DA087B68083239694F
:101F780043F822107B681B683B617B695B00032286
:101F880002FA03F3DB433A6913403B613B685B6841
:101F980003F003027B695B0002FA03F33A69134317
:101FA8003B617B683A691A603B685B68012B0BD020
:101FB8003B685B68022B07D03B685B68112B03D03A
:101FC8003B685B68122B30D17B689B683B617B69FF
:101FD8005B00032202FA03F3DB433A6913403B61D7
:101FE8003B68DA687B695B0002FA03F33A691343DA
:101FF8003B617B683A699A607B685B683B61012258
:102008007B6902FA03F3DB433A6913403B613B689F
:102018005B681B0903F001027B6902FA03F33A6962
:1020280013433B617B683A695A607B68DB683B61B4
:102038007B695B00032202FA03F3DB433A6913402E
:102048003B613B689A687B695B0002FA03F33A6973
:1020580013433B617B683A69DA603B685B6803F06D
:102068008053002B00F09A80554B9B69544A43F0EB
:1020780001039361524B9B6903F00103BB60BB688A
:10208800504A7B699B08023352F823303B617B69D5
:1020980003F003039B000F2202FA03F3DB433A69C0
:1020A80013403B617B68B3F1904F13D07B68464A7D
:1020B80093420DD07B68454A934207D07B68444AD7
:1020C800934201D1032306E0052304E0022302E042
:1020D800012300E000237A6902F003029200934092
:1020E8003A6913433B6137497B699B0802333A6974
:1020F80041F82320374B1B683B61FB68DB433A6997
:1021080013403B613B685B6803F48033002B03D0CA
:102118003A69FB6813433B612E4A3B6913602D4BB8
:102128005B683B61FB68DB433A6913403B613B6892
:102138005B6803F40033002B03D03A69FB68134350
:102148003B61244A3B695360224B9B683B61FB68B7
:10215800DB433A6913403B613B685B6803F48013D7
:10216800002B03D03A69FB6813433B61194A3B696A
:102178009360184BDB683B61FB68DB433A691340AB
:102188003B613B685B6803F40013002B03D03A699A
:10219800FB6813433B610F4A3B69D3607B6901339A
:1021A8007B613B681A687B6922FA03F3002B7FF492
:1021B800A9AE00BF1C37BD465DF8047B704700BF61
:1021C80000100240000001400004004800080048D8
:1021D800000C00480004014080B485B000AF78606E
:1021E8007B6803F00703FB600C4BDB68BB60BA68D5
:1021F8004FF6FF031340BB60FB681A02BB6813432A
:1022080043F0BF6343F40033BB60044ABB68D36048
:1022180000BF1437BD465DF8047B704700ED00E051
:1022280080B400AF044BDB681B0A03F007031846B1
:10223800BD465DF8047B704700ED00E080B483B0D4
:1022480000AF03463960FB7197F90730002B0ADBB2
:102258003B68DAB20C4997F907301201D2B20B4445
:1022680083F800230AE03B68DAB20849FB7903F0F7
:102278000F03043B1201D2B20B441A7600BF0C378D
:10228800BD465DF8047B704700E100E000ED00E02A
:1022980080B489B000AFF860B9607A60FB6803F079
:1022A8000703FB61FB69C3F10703042B28BF042361
:1022B800BB61FB690433062B02D9FB69033B00E0D1
:1022C80000237B614FF0FF32BB6902FA03F3DA4364
:1022D800BB681A407B699A404FF0FF317B6901FA6D
:1022E80003F3D9437B680B40134318462437BD4694
:1022F8005DF8047B7047000080B582B000AF78605D
:102308007B68013BB3F1807F01D301230FE00A4AC8
:102318007B68013B53600F214FF0FF30FFF78EFFC2
:10232800054B00229A60044B07221A6000231846C6
:102338000837BD4680BD00BF10E000E080B582B020
:1023480000AF78607868FFF747FF00BF0837BD46E1
:1023580080BD80B586B000AF0346B9607A60FB7374
:1023680000237B61FFF75CFF78617A68B968786958
:10237800FFF78EFF024697F90F3011461846FFF710
:102388005DFF00BF1837BD4680BD80B582B000AF85
:1023980078607868FFF7B0FF034618460837BD46EF
:1023A80080BD000080B400AF084BD3F88830074ADE
:1023B80043F47003C2F88830044B4FF000629A600F
:1023C80000BFBD465DF8047B704700BF00ED00E02C
:1023D800DFF834D0002103E00C4B5B584350043144
:1023E8000B480C4B42189A42F6D30B4A02E00023E2
:1023F80042F8043B094B9A42F9D3FFF7D3FF00F0A8
:1024080011F8FDF721FFFEE700300020842E0008B8
:102418000000002070000020700000202001002033
:10242800FEE7000070B50D4E0D4CA41BA41000254E
:10243800A54209D10B4E0C4C00F0BEFCA41BA41005
:102448000025A54205D170BD56F8253098470135BD
:10245800EEE756F8253098470135F2E77C2E00085C
:102468007C2E00087C2E0008802E000802440346BB
:10247800934200D1704703F8011BF9E770B50E4687
:10248800054618B183690BB900F00CFAAB69AC6862
:1024980013B9284600F006FA234B9C4217D16C6802
:1024A800A3891B071DD52369DBB1013EA36816F874
:1024B800011F013BA360E9B9002B2EDA22460A214D
:1024C800284600F03FF8013011D00A2011E0174BE0
:1024D8009C4201D1AC68E3E7154B9C4208BFEC680D
:1024E800DEE72146284600F07FF80028DDD04FF0CF
:1024F800FF3070BD002B04DAA2699A4206DC0A2973
:1025080004D023685A1C22601970CFE72246284657
:1025180000F018F80130C9D1E9E723680A205A1CED
:1025280022601870E5E700BF3C2E00085C2E00080A
:102538001C2E0008024B01461868FFF79FBF00BF1A
:102548000C000020F8B50E461446054618B18369FC
:102558000BB900F0A7F9214B9C422AD16C68A369FA
:10256800A360A3891A072ED5236963B3236920685A
:10257800C01A6369F6B28342374604DC214628460E
:1025880000F026F928BBA368013BA36023685A1C06
:1025980022601E7063690130834204D0A389DB077F
:1025A80019D50A2E17D12146284600F011F990B105
:1025B8000FE00B4B9C4201D1AC68D0E7094B9C4221
:1025C80008BFEC68CBE72146284600F00DF8002844
:1025D800CCD04FF0FF373846F8BD00BF3C2E00087E
:1025E8005C2E00081C2E0008324B70B51D6806468C
:1025F8000C4625B1AB6913B9284600F053F92E4BA8
:102608009C420FD16C68B4F90C309AB215072CD4DF
:10261800D00611D40922326043F04003A3814FF061
:10262800FF303EE0254B9C4201D1AC68EBE7244BE0
:102638009C4208BFEC68E6E7510712D5616B41B1CF
:1026480004F14403994202D0304600F019FA0023FD
:102658006363A38923F02403A381002363602369B0
:102668002360A38943F00803A38123694BB9A38995
:1026780003F42073B3F5007F03D02146304600F001
:10268800BFF9A28912F001030CD00023A36063698B
:102698005B42A361236953B9B4F90C3013F080008D
:1026A800BAD170BD920758BF6369A360F2E70020F2
:1026B800F7E700BF0C0000203C2E00085C2E000845
:1026C8001C2E00088A892DE9F041054610070C46A2
:1026D80058D44B68002B05DC0B6C002B02DC002067
:1026E800BDE8F081E66A002EF9D0002312F480528A
:1026F8002F68216A2B6032D0606DA3895A0705D5EF
:102708006368C01A636B0BB1236CC01A00230246BE
:10271800E66A216A2846B047431CA38906D129687E
:102728001D2948D8294ACA40D60744D500226260E4
:10273800D9042269226004D5421C01D12B6803B94F
:102748006065616B2F600029C9D004F14403994288
:1027580002D0284600F094F900206063C0E7012306
:102768002846B047411CC8D12B68002BC5D01D2B6B
:1027780001D0162B01D12F60B1E7A38943F04003A4
:10278800A381ADE70F69002FA9D093070E6808BF92
:102798004B690F6018BF0023A6EB07088B60B8F1E0
:1027A800000F9CDD43463A46216AA66A2846B04790
:1027B800002806DCA38943F04003A3814FF0FF30D3
:1027C8008EE70744A8EB0008E9E700BF01004020B6
:1027D80038B50B6905460C46DBB118B183690BB9EE
:1027E80000F060F80C4B9C4209D16C68B4F90C30CD
:1027F8007BB121462846BDE83840FFF763BF074B49
:102808009C4201D1AC68F1E7054B9C4208BFEC68DB
:10281800ECE7002038BD00BF3C2E00085C2E000805
:102828001C2E0008002310B50446C0E9003383605D
:1028380081814366C281C0E9043383611946082255
:102848005C30FFF713FE054B6362054BA362054B33
:10285800E362054B2462236310BD00BFF92B000817
:102868001B2C0008532C0008772C0008014900F0A5
:1028780085B800BFD927000870B54A1E682555439A
:102888000E4605F1740100F049F9044640B10021F3
:10289800C0E900160C30A06005F16802FFF7E6FDFC
:1028A800204670BD836910B5044633BBC0E91233B6
:1028B8000365124B124A1B688262984204BF0123C7
:1028C800836100F01FF86060204600F01BF8A060EC
:1028D800204600F017F80022E06004216068FFF746
:1028E800A1FF01220921A068FFF79CFF0222122103
:1028F800E068FFF797FF0123A36110BD182E0008B9
:1029080075280008F8B51B4B1E68B369074613B94C
:102918003046FFF7C7FF4836D6E90134013B03D5F7
:10292800336833B13668F7E7B4F90C506DB16834E1
:10293800F4E704213846FFF79FFF30600028F1D103
:102948000C233B6004462046F8BD0B4B6566C4E982
:102958000055A560C4E90335C4E905550822294690
:1029680004F15C00FFF782FDC4E90D55C4E9125576
:10297800E9E700BF182E00080100FFFF2DE9F84322
:102988008046894600F14804002614B93046BDE85F
:10299800F883D4E90175013F01D52468F5E7AB89CF
:1029A800012B07D9B5F90E30013303D0294640462B
:1029B800C84706436835EEE770B50E46B1F90E1004
:1029C800002996B014461D4607DA00232B60B38908
:1029D8001A0610D44FF480630EE06A4600F06EF9D0
:1029E8000028F2DB019A02F47042A2F500535A4221
:1029F8005A412A60EEE740230020236016B070BDDC
:102A08008B8973B59D0706460C4607D504F1470325
:102A1800236023610123636102B070BD01AB6A4684
:102A2800FFF7CAFF00990546304600F077F848B925
:102A3800B4F90C309A05EFD423F0030343F00203F2
:102A4800A381E3E70D4BB362A389206043F08003C1
:102A5800A381009B6361019B20615BB1B4F90E10F7
:102A6800304600F03DF928B1A38923F0030343F071
:102A78000103A381A3891D43A581CDE7752800081B
:102A880038B50546002945D051F8043C0C1F002BE9
:102A9800B8BFE41800F046F91F4A1368104633B966
:102AA800636014602846BDE8384000F03CB9A34292
:102AB8000CD921686218934204BF1A685B68636086
:102AC80004BF521822600460ECE713465A680AB142
:102AD800A242FAD919685818A0420BD120680144BB
:102AE800581882421960DDD1106852685A60014452
:102AF8001960D7E702D90C232B60D3E72068211887
:102B08008A4204BF11685268626004BF09182160D4
:102B18005C60C7E738BD00BF8C00002070B5CD1CD5
:102B280025F0030508350C2D38BF0C25002D064669
:102B380001DBA94203D90C233360002070BD00F0EB
:102B4800F1F8214A1468214691B9204C23681BB931
:102B5800304600F03DF820602946304600F038F84D
:102B6800431C24D10C233360304600F0DCF8E4E742
:102B78000B685B1B18D40B2B0FD90B60CD50CC18EE
:102B8800304600F0D0F804F10B00231D20F00700B8
:102B9800C31AD3D05A42E250D0E78C424B6816BFD2
:102BA800636013600C46EBE70C464968CCE7C41C2D
:102BB80024F00304A04205D0211A304600F008F89A
:102BC8000130CFD02560DBE78C000020900000208A
:102BD80038B5064C002305460846236000F0DEF8A9
:102BE800431C02D1236803B12B6038BD1C010020AF
:102BF80010B50C46B1F90E1000F096F80028ABBFDE
:102C0800636DA3891B1823F48053ACBF6365A3814C
:102C180010BD2DE9F0411F468B89DB0505460C46A2
:102C2800164605D502230022B1F90E1000F068F807
:102C3800A389B4F90E1023F48053A38132463B468E
:102C48002846BDE8F04100F017B810B50C46B1F9B8
:102C58000E1000F055F8431CA38915BF606523F4D6
:102C6800805343F48053A38118BFA38110BDB1F9E9
:102C78000E1000F013B8000038B5074C054608469A
:102C88001146002222601A46FDF7C1FA431C02D100
:102C9800236803B12B6038BD1C01002038B5064CF1
:102CA800002305460846236000F050F8431C02D173
:102CB800236803B12B6038BD1C01002038B5074CD0
:102CC8000023054608461146236000F047F8431CD8
:102CD80002D1236803B12B6038BD00BF1C0100205E
:102CE80038B5064C002305460846236000F03EF838
:102CF800431C02D1236803B12B6038BD1C0100209E
:102D080038B5074C054608461146002222601A4687
:102D180000F034F8431C02D1236803B12B6038BD9E
:102D28001C0100207047704738B5074C0546084617
:102D38001146002222601A4600F028F8431C02D1EE
:102D4800236803B12B6038BD1C010020024B5822B8
:102D58001A604FF0FF3070471C010020024B5822C8
:102D68001A604FF0FF3070471C010020024B5822B8
:102D78001A600020704700BF1C010020024B582237
:102D88001A604FF0FF3070471C010020024B582298
:102D98001A604FF0FF3070471C010020044B19687F
:102DA800024609B903491960186802441A60704755
:102DB8009400002020010020F8B500BFF8BC08BC32
:102DC8009E467047F8B500BFF8BC08BC9E467047E1
:102DD8006677656600000000020304050607080917
:102DE8000A0B0C0D0E0F101001020304050607084C
:102DF800090A0B0C0D0E0F10000000000000000067
:102E08000102030406070809000000000102030488
:102E1800100000200000000000000000000000007A
:102E2800000000000000000000000000000000009A
:102E3800000000000000000000000000000000008A
:102E4800000000000000000000000000000000007A
:102E5800000000000000000000000000000000006A
:102E6800000000000000000000000000000000005A
:042E78000000000056
:042E7C00AD0100089C
:042E800089010008BC
:102E8400100000000100000000127A001000002071
:102E9400000000003C2E00085C2E00081C2E0008D8
:102EA400000000000000000000000000000000001E
:102EB400000000000000000000000000000000000E
:102EC40000000000000000000000000000000000FE
:102ED40000000000000000000000000000000000EE
:102EE40000000000000000000000000000000000DE
:04000005080023D9F3
:00000001FF
